:020000040800F2
:10000000B808002065010008D91100081510000883
:1000100000000000000000000000000000000000E0
:10002000000000000000000000000000A51400080F
:100030000000000000000000DD110008A914000805
:1000400077010008770100087701000877010008B0
:1000500077010008770100087701000877010008A0
:100060000000000077010008770100087701000810
:100070007701000877010008770100087701000880
:100080007701000877010008770100087701000870
:1000900000000000B9150008FD15000877010008F0
:1000A000770100087701000877010008251600088D
:1000B0007701000877010008000000000000000040
:1000C00000F002F800F03EF80CA030C80838241800
:1000D0002D18A246671EAB4654465D46AC4201D180
:1000E00000F030F87E460F3E0FCCB6460126334274
:1000F00000D0FB1AA246AB4633431847FC1D000054
:100100001C1E0000103A02D378C878C1FAD85207F2
:1001100001D330C830C101D504680C6070470000BD
:100120000023002400250026103A01D378C1FBD813
:10013000520700D330C100D50B6070471FB51FBDFB
:1001400010B510BD00F005F91146FFF7F7FF01F0FB
:10015000EDFB00F01DF903B4FFF7F2FF03BC00F064
:1001600023F900000748804707480047FEE7FEE7FD
:10017000FEE7FEE7FEE7FEE704480549054A064BB1
:10018000704700002D150008C1000008B8020020CB
:10019000B8080020B8040020B804002001E004C022
:1001A000091F0429FBD28B0701D50280801CC907D7
:1001B00000D00270704700290BD0C30702D0027034
:1001C000401C491E022904D3830702D50280801CEB
:1001D000891EE3E70022EEE70022DFE78178C2789C
:1001E00003780904120611434278100218430843A9
:1001F0007047002203098B422CD3030A8B4211D390
:1002000000239C464EE003460B433CD400224308A7
:100210008B4231D303098B421CD3030A8B4201D397
:1002200094463FE0C3098B4201D3CB01C01A52412F
:1002300083098B4201D38B01C01A524143098B427F
:1002400001D34B01C01A524103098B4201D30B0168
:10025000C01A5241C3088B4201D3CB00C01A52418D
:1002600083088B4201D38B00C01A524143088B4252
:1002700001D34B00C01A5241411A00D201465241EB
:10028000104670475DE0CA0F00D04942031000D30A
:100290004042534000229C4603098B422DD3030A5F
:1002A0008B4212D3FC22890112BA030A8B420CD36F
:1002B000890192118B4208D3890192118B4204D398
:1002C00089013AD0921100E08909C3098B4201D318
:1002D000CB01C01A524183098B4201D38B01C01A52
:1002E000524143098B4201D34B01C01A52410309C9
:1002F0008B4201D30B01C01A5241C3088B4201D378
:10030000CB00C01A524183088B4201D38B00C01A24
:100310005241D9D243088B4201D34B00C01A5241FB
:10032000411A00D20146634652415B10104601D388
:100330004042002B00D54942704763465B1000D312
:10034000404201B50020C046C04602BD704770471C
:100350007047754600F024F8AE46050069465346DE
:10036000C008C000854618B020B5FFF705FF60BC87
:1003700000274908B6460026C0C5C0C5C0C5C0C5CF
:10038000C0C5C0C5C0C5C0C5403D49008D46704709
:1003900010B50446C046C0462046FFF7DCFE10BD3F
:1003A000004870475802002001491820ABBEFEE704
:1003B000260002007047000010B50246FF2004E04E
:1003C00013784340034CE05C521C0B46491E002B43
:1003D000F6D110BDF81D000810B501F0FFFB01F0CB
:1003E000C1FB4021024801F045FB01F021FB10BD9B
:1003F000D400002072B600BFFEE7000070B50446CE
:1004000000F004F906462546681C002802D005487D
:1004100000782D1800BF00F0F9F8801BA842FAD32D
:1004200070BD00000800002070B503460A46002198
:10043000D7E001268E4014683440002C73D0157923
:10044000AD07AD0F012D04D01579AD07AD0F022D0D
:1004500018D198684E000325B5400646AE43304695
:100460004E00D568B54028439860586801258D40F6
:100470000646AE4330461026556835402D098D405E
:10048000284358601579AD07AD0F032D0BD0D86800
:100490004E000325B5400646AE4330464E009568F3
:1004A000B5402843D8601579AD07AD0F022D15D1A1
:1004B000CD08AE001D462035A8594D07EE0E0F257C
:1004C000B5400646AE4330464E07F60E1569B540B8
:1004D0002843CD08AD001E462036705118684E00E6
:1004E0000325B5400646AE4330461579AD07AD0F3E
:1004F0004E00B54028431860032636045568354041
:10050000002D6DD03A4D8E08B600A8598D07EE0E1D
:100510000F25B5400646AE43304605252D07AB42B4
:1005200002D1002510E05BE0324DAB4201D1012544
:100530000AE0314DAB4201D1022505E02F4DAB421F
:1005400001D1032500E005258E07F60EB5402843AE
:10055000274D8E08B600A851254D603D28680546F8
:10056000A54328460126360555683540002D02D0A2
:100570000546254328461E4D603D286068680546AF
:10058000A54328460126760555683540002D02D042
:10059000054625432846164D603D6860144D2035BC
:1005A00068680546A5432846012676045568354007
:1005B000002D02D00546254328460D4D20356860A4
:1005C00028680546A5432846012636045568354067
:1005D000002D02D0054625432846054D20352860CC
:1005E000491C1568CD40002D00D022E770BD0000E9
:1005F000601802400004005000080050000C005039
:10060000002A01D0816100E08162704701480068E2
:100610007047000000000020034800680349097883
:1006200040180149086070470000002008000020C1
:1006300010B5002408480068FF210131084306492D
:100640000860032000F00AF8002801D0012401E02E
:1006500000F034F8204610BD00200240F8B50446F2
:1006600000251348007800281ED0114801787D200D
:10067000C000FFF7BEFD074639460E480068FFF789
:10068000B8FD064600F0AAFC00280BD1042C07D2C6
:1006900000222146401E00F033F80748046004E0C1
:1006A000012502E0012500E001252846F8BD0000F3
:1006B000080000200C0000200400002008B500BF46
:1006C0000E480068012108430C490860084600688C
:1006D000C007C00F009000BF00BF00BF07484038F0
:1006E000C06B8905084305494039C8630846C06B9B
:1006F00009040840009000BF00BF08BD4010024040
:1007000070B504460D4616462946204601F01EF8EF
:1007100070BD000070B5044611480068032149020D
:10072000884320430E4908604815844216D10D497C
:1007300009680622514308460B49FFF75AFD451C3C
:1007400005E0002D01D06D1E01E0032070BD0448BE
:1007500040690121890208408842F2D00020F5E773
:10076000007000400C00002040420F0070B50446AD
:100770000D46002C01D1012070BD6B480068400778
:10078000400FA84218D268480068C008C00028433B
:1007900065490860FFF73AFF064607E0FFF736FFB6
:1007A000801B6249884201D90320E5E75E48006862
:1007B0004007400FA842F1D10221206808400228DA
:1007C00015D1042120680840042807D158488068C2
:1007D00007210903884340185549886054488068B8
:1007E0000F2109028843A168084351498860207895
:1007F000C007C00F002854D06068012808D14C48B9
:10080000006801214904084000282ED10120B3E7E7
:100810006068022808D1464800680121490608405E
:10082000002822D10120A7E76068002808D14048AD
:100830000068012189020840002816D101209BE7A9
:100840006068032808D13A484030006A0221084015
:1008500000280AD101208FE735484030C0690221C5
:100860000840002801D1012086E731488068C0088F
:10087000C000616808432E498860FFF7C7FE06463E
:1008800007E0FFF7C3FE801B2849884201D90320F7
:1008900072E727488068382108406168C9008842AB
:1008A000EFD1214800684007400FA84218D91E48E0
:1008B0000068C008C00028431B490860FFF7A6FE77
:1008C000064607E0FFF7A2FE801B1849884201D9BF
:1008D000032051E7144800684007400FA842F1D1B7
:1008E000042120680840042808D1114880680721A5
:1008F00009038843E16808430D49886000F020F847
:100900000B4989680F2212021140090A8900094A1D
:10091000515CC906C90EC84007490860074800680D
:10092000FFF79CFE28E7000000200240881300002B
:1009300000100240181D00080C00002004000020D8
:10094000FEB5354880683821084000280DD132486E
:10095000006809020840C10A0120884000902F4821
:100960000099FFF746FC044654E02B488068382184
:100970000840082801D1294C4CE0274880683821DC
:100980000840102834D12448C0688607B60F224892
:10099000C068702108400009401C0190022E0FD051
:1009A000032E0CD11D480199FFF723FC1A49C96891
:1009B0007F2212021140090A484305460DE000BF9C
:1009C00016480199FFF715FC1349C9687F221202E6
:1009D0001140090A4843054600BF00BF0E48C068E1
:1009E000400F471C39462846FFF703FC044611E038
:1009F0000948806838210840202801D1840209E094
:100A00000548806838210840182802D17D24240236
:100A100000E000242046FEBD001002400024F40047
:100A2000FEB50446002C01D10120FEBD2078C00790
:100A3000C00F00286FD0F748876838210F40C06882
:100A40008607B60F102F01D1032E01D0082F0BD12E
:100A5000F048006801214904084000285BD0606824
:100A6000002858D10120E0E700BF01210904606897
:100A7000884205D1E74800680843E649086021E05C
:100A800005210904606888420ED1E248006801210E
:100A900089040843DF490860084600680121090409
:100AA0000843DC4908600DE0DA48006801210904C8
:100AB0008843D849086008460068012189048843B2
:100AC000D449086000BF6068002812D0FFF79EFD7F
:100AD000054606E0FFF79AFD401B642801D9032074
:100AE000A3E7CC4800680121490408400028F1D060
:100AF00011E0FFF78BFD054606E0FFF787FD401B81
:100B0000642801D9032090E7C24800680121490404
:100B100008400028F1D1022120680840022873D142
:100B2000BC488068382108400746BA48C068860734
:100B3000B60F102F01D1022E01D0002F36D1B548AB
:100B40000068012189020840002804D0E0680028DC
:100B500001D1012069E7AF4840687F21090288433D
:100B6000616909020843AB494860002F16D1084665
:100B700000680721C902884321690843A549086024
:100B8000084600680722D2021040C20A01209040A5
:100B90000146A148FFF72DFBA0490860A048006866
:100BA000FFF75CFD002849D001203EE7E0680028FF
:100BB0002BD0984800680721C9028843216908435F
:100BC00094490860084600688915084391490860FF
:100BD000FFF71CFD054606E0FFF718FD401B022845
:100BE00001D9032021E78B480068012189020840D0
:100BF0000028F1D0874840687F2109028843616955
:100C0000090208438349486018E082480068FF21D0
:100C1000013188437F490860FFF7F8FC054606E08C
:100C2000FFF7F4FC401B022801D90320FDE67948B8
:100C300000680121890208400028F1D108212068BC
:100C40000840082849D1734880683821084018288E
:100C50000BD170484030006A0221084000283CD087
:100C6000A069002839D10120DFE6A06900281AD048
:100C700068484030006A01210843664940310862F3
:100C8000FFF7C4FC054606E0FFF7C0FC401B022846
:100C900001D90320C9E65F484030006A02210840BC
:100CA0000028F1D019E05B484030006A400840005D
:100CB000584940310862FFF7A9FC054606E0FFF7F6
:100CC000A5FC401B022801D90320AEE65148403064
:100CD000006A022108400028F1D104212068084060
:100CE00004287CD1002001904A48806838210840BF
:100CF00020280BD147484030C06902210840002815
:100D00006ED0A06800286BD101208EE64148C06BF0
:100D1000010F01208843002810D000BF3D48C06B60
:100D20000121090708433B49C8630846C06B090411
:100D30000840009000BF00BF0120019039480068C2
:100D4000FF2101310840002816D1364800680843C9
:100D500034490860FFF75AFC054606E0FFF756FCE9
:100D6000401B022801D903205FE62E480068FF21BE
:100D7000013108400028F1D000BFA068012808D147
:100D800024484030C0690121084322494031C861EC
:100D900020E0A06805280FD11E484030C06904211A
:100DA00008431C494031C8610846C0690121084315
:100DB00018494031C8610DE016484030C06941080B
:100DC000490014484030C161C06904218843114979
:100DD0004031C86100BFA068002816D001E040E0A3
:100DE0003EE0FFF713FC054607E0FFF70FFC401B52
:100DF0000D49884201D9032017E606484030C069F2
:100E0000022108400028F0D01EE0FFF7FFFB054656
:100E100014E00000001002400024F4000C00002048
:100E2000040000200070004088130000FFF7EEFB74
:100E3000401B6649884201D90320F6E56448C06931
:100E4000022108400028F1D10198012808D160480A
:100E50004038C06B0121090788435D494039C863A8
:100E600000BFE06900285CD05948403880683821CC
:100E7000084010287CD0E069022853D154484038FB
:100E80000068012109068843514940390860FFF78D
:100E9000BDFB054606E0FFF7B9FB401B022801D960
:100EA0000320C2E54A48403800680121490608404D
:100EB0000028F0D1616A206A0843A16A0902084348
:100EC000E16A0843216B0843616B0843404940399C
:100ED000C968404A114008433D494039C860084646
:100EE000006801210906084339494039086008466D
:100EF000C0680904084336494039C860FFF786FBDB
:100F0000054606E0FFF782FB401B022801D90320BB
:100F10008BE52F4840380068012149060840002829
:100F2000F0D050E02A484038006801210906884383
:100F3000274940390860FFF769FB054606E0FFF7DF
:100F400065FB401B022801D903206EE5204840388C
:100F500000680121490608400028F0D11C484038AB
:100F6000C0681D4908401A494039C8602BE0FFE7B6
:100F7000E069012800D158E515484038C668B10736
:100F8000890F206A81421CD170203040616A8842FA
:100F900017D17F2000023040A16A0902884210D197
:100FA0001F2040043040E16A88420AD107204006F1
:100FB0003040216B884204D1710F4907606B814238
:100FC00001D0012031E500202FE50000881300004A
:100FD000401002408C80C111FCFFFEEE70B504464B
:100FE0002546681E0949884201D901200CE0681E87
:100FF000074948610321081F00F0A8FB00200449AD
:10100000886107200861002070BD0000FFFFFF001D
:1010100000E000E000BFFEE770B505460C4606485C
:101020002818002806D110220449204600F0E8FCC8
:10103000102070BD0020FCE7CCEDFFFF3B0000203E
:1010400010B504460E220249204600F0D9FC10BD1E
:101050002D00002070B54021184800F003FBC4B2F9
:10106000052C00DA70BD611E1448FFF7A5F905468E
:10107000601E1249085CA8421ED10846007880070D
:10108000800F002806D122460D4800F0B9FC00F080
:10109000A7F8E7E7094800788007800F01280BD1FF
:1010A00008480068401C07490860072203490648B1
:1010B00000F0A6FC00F0ECF800BFD3E7140100201C
:1010C0007E010020100000205401002070B504466D
:1010D0000D46164613482018002806D001280BD0CC
:1010E0001149401800281BD10DE02A4631460F480F
:1010F00000F086FC012070BD2A4631460B4800F006
:101100007FFC0120F7E72A463146094800F078FCC9
:101110000848007804218843064908700120EAE75E
:101120000020E8E7CCEDFFFF3452FFFF360200203D
:10113000460200201400002008B500BF0648806B5E
:1011400001210843044988630846806BC007C00F2B
:10115000009000BF00BF08BD0010024000B587B07E
:10116000142102A8FFF738F800BF1A48406B042189
:101170000843184948630846406B04210840019021
:1011800000BF00BF00BF1348406B01210843114955
:1011900048630846406BC007C00F019000BF00BF06
:1011A0000022022105200007FFF72AFA0220029000
:1011B000012003900490059002A905200007FFF785
:1011C00033F90122022105200007FFF719FA07B0C1
:1011D00000BD00000010024000BFFEE770470000A5
:1011E00010B526484078411E2448FFF7E5F804462C
:1011F00022484078001F2149C91C085CA04200D049
:1012000010BD1E4800788006000F002804D0012879
:101210000DD002282ED118E019492022486817491C
:10122000C91C00F0EDFB01201649087023E01449A9
:10123000142288681149C91C00F0E2FB12480078AA
:10124000400840001049087015E00D492022C86888
:101250000A49C91C00F0D4FB0B48007802218843DE
:101260000949087006498B682022C868074900F0C0
:1012700099F800E000BF00BF00BFC1E77E01002079
:10128000180000202C00002014000020F60100208F
:1012900010B5152200213E4800F0BFFB00203D495B
:1012A00008703D4800788008030000F041FA05040A
:1012B0000513223A4B0046E038480078344948701C
:1012C00036484078887036480078C8700120314927
:1012D000087038E02E48401CFFF7B2FE2F48807897
:1012E0002B49C8732D48C07808740120294908701B
:1012F00029E029488178427808021043244948703F
:10130000000A88708A784B781102194308462049F0
:10131000091DFFF781FE1E49C87001201D49087094
:1013200011E01D4AD178937854781A02224310466E
:10133000194A121DFFF7CAFE1549C8700120154948
:10134000087000E000BF00BF1248007800281DD0E0
:101350000220104908700E48007880088000801C28
:101360000B49087008460078FC2188430A4909782F
:101370000906890E8900FC221140084304490870BF
:1013800014210348FFF718F80149087510BD000043
:10139000690100204B0000205401002018000020AB
:1013A00014000020FFB585B00598049000260020A9
:1013B000029003906BE0089841780278080210438D
:1013C00002990841C006C00E01900298401D02908B
:1013D0000298082805D30898401C089002980838FD
:1013E000029001980407240F022C3AD30498FEF7C8
:1013F000F5FEF0400121A140491E07460F40611E45
:1014000001208840B84201D1244D2BE0611E01200B
:101410008840401CB84204D1062C02D31F4D6D1CDD
:1014200020E00020621E012191403940002906D0B1
:10143000012001219140491E7A4211400F46019935
:101440008900174A515879430122D20389180D0C9B
:10145000032149038D4200DD0D46002800D06D4276
:1014600000E0002529B203984200069881523619FF
:10147000082E03D30498401C0490083E082E03D382
:101480000498401C0490083E0398401C0390079960
:10149000039888428FD309B0F0BD00000080FFFFA1
:1014A000781D00087047704710B5FFF7B5F810BDFC
:1014B00000B593B0382105A8FEF78EFE00200190FC
:1014C00002900390049001204002FFF723F90120CD
:1014D000059005200004069002200C9003210D9138
:1014E00000210E9108210F91010410910106119124
:1014F0000107129105A8FFF793FA002801D0FEF723
:1015000079FF0720019002200290002003900490B0
:10151000022101A8FFF72AF9002801D0FEF76AFF8F
:1015200013B000BD10B500F003F810BD7047000007
:1015300010B51E48006B0121890408431B4908634C
:101540000846006B0121890488431849086317483D
:101550004030006801218904084314494031086083
:10156000002013490860486048623F2088627D205F
:10157000C000C8620120C8600221162000F022F9D4
:101580001620002809DB00BF00BFC206D20E0121D1
:101590009140084A116000BF00BF00BF04480068C6
:1015A000012108430249086010BD000000100240FC
:1015B0000048014000E100E010B50D480069C00797
:1015C000C00F002812D00A480068400840000849AF
:1015D00008600020086107480078022806D1002032
:1015E000044908701521044800F072FA10BD00008B
:1015F000004401404B0000206901002007480069B9
:10160000C007C00F002807D0002004490861044823
:101610000068401C02490860704700000048014013
:101620005000002010B50E48C0690121C9020840D1
:10163000002808D008460A490862A02000F080FA75
:10164000FFF708FD0AE00648C0694021084000286D
:1016500004D040200249086200F0EAF910BD000001
:1016600000380140F3B581B00D462D48006A402195
:10167000081A2C4908802C4800880988884201D122
:101680000020FEBD2848008826490988884216DACD
:101690002448008824490988401A84B2AC4200DDFD
:1016A0002C462248204A128881182246019800F0D0
:1016B000A7F91C4800881C4908802046E1E71A4821
:1016C000008818490988401A4021081A87B216482C
:1016D0000088081A84B21548134A128881182246D5
:1016E000019800F08DF9381B86B20198001901901D
:1016F000002E0BD10C48008800190B4908800846C1
:101700000088402809DB0020088006E032460749AF
:10171000019800F075F9044806803846B1E70000EA
:10172000000002404E0000204C000020D4000020A9
:1017300030B47446641E2578641CAB4204D3635DE8
:101740005B00E31830BC18471D46F8E710B50028C9
:1017500019DB1A4A03231B02D21883089B00D258B4
:101760008307DC0EFF23A3409A438B071B0E8407DD
:10177000E40EA3401A43114B032424021B198408CE
:10178000A4001A5118E00E4A03071B0F083B9B08E0
:101790009B00D2588307DC0EFF23A3409A438B079C
:1017A0001B0E8407E40EA3401A43054B0407240FC5
:1017B000083CA408A4001A5110BD000000E100E09C
:1017C0001CED00E010B5002819DB1A4A03231B02A8
:1017D000D21883089B00D2588307DC0EFF23A34056
:1017E0009A438B071B0E8407E40EA3401A43114B48
:1017F000032424021B198408A4001A5118E00E4A7D
:1018000003071B0F083B9B089B00D2588307DC0E85
:10181000FF23A3409A438B071B0E8407E40EA340CB
:101820001A43054B0407240F083CA408A4001A51CE
:1018300010BD000000E100E01CED00E010B5002844
:1018400019DB1A4A03231B02D21883089B00D258C3
:101850008307DC0EFF23A3409A438B071B0E8407EC
:10186000E40EA3401A43114B032424021B198408DD
:10187000A4001A5118E00E4A03071B0F083B9B08EF
:101880009B00D2588307DC0EFF23A3409A438B07AB
:101890001B0E8407E40EA3401A43054B0407240FD4
:1018A000083CA408A4001A5110BD000000E100E0AB
:1018B0001CED00E010B5002819DB1A4A03231B02B7
:1018C000D21883089B00D2588307DC0EFF23A34065
:1018D0009A438B071B0E8407E40EA3401A43114B57
:1018E000032424021B198408A4001A5118E00E4A8C
:1018F00003071B0F083B9B089B00D2588307DC0E95
:10190000FF23A3409A438B071B0E8407E40EA340DA
:101910001A43054B0407240F083CA408A4001A51DD
:1019200010BD000000E100E01CED00E0FEF780FECD
:10193000FFF7BEFDFFF712FCFFF7FEFBFFF7F2FD1E
:10194000FEF74AFDFFF7AFFDC820FEF757FD45E063
:1019500023480078002841D022480078C007C00FF3
:1019600000283BD120498B68202248681F49FFF797
:1019700019FD00201A490870002108462CE0420099
:101980001A4B9A5E1A4B9A4224D04200174B9A5E29
:10199000174B5B1C9A421DD04200144B9A5E0323E6
:1019A0009B03D2187D239B015A430123DB03D218EA
:1019B0001114104A914200DA11460F4A914200DD9B
:1019C00011460A46CB179B0F9B189B101BB2440075
:1019D0000A4D2B53411C08462028D0D3B8E70000FD
:1019E0002C000020140000201800002054000020CB
:1019F0000080FFFFB80B00002823000094000020A7
:101A000070B50B46044603E01D7825705B1C641C12
:101A10001546521E002DF7D170BD30B5034601E0CA
:101A200019705B1C1446521E002CF9D130BD000009
:101A30000C4800680321090388430A4908600A48E2
:101A40000068482188430849086000200749086366
:101A5000C814054908620846006805490843024958
:101A60000860704700040050003801400000024048
:101A700005000004114A126803231B039A430F4B0D
:101A80001A600F4A126848239A430D4B1A6032229B
:101A90000C4B5A6000220C4BDA61094A24325A621C
:101AA0001A4690621162A122DA61054A92684023C7
:101AB0001A43034B9A60054A1A60704700040050AD
:101AC000003801400008024000000240010000040C
:101AD000164A1268164B1A40144B1A60154A1268BF
:101AE00003231B039A4301235B03D218114B1A6093
:101AF0003322114B9A600022104B1A630B4A283292
:101B00009A631A46D063516391221A634022074BAD
:101B10001A621A46926880231A43044B9A601A4646
:101B2000126849231A43014B1A607047003801407C
:101B3000FBFFFFFB000400500008024000000240D1
:101B40000749096849084900054A116000215162A6
:101B50001146C862096801221143014A11607047A9
:101B60000044014010B51A48006B012149040843A4
:101B7000174908630846006B01214904884314494A
:101B800008631348403000680121490408431049A4
:101B90004031086000200F490860486048623F20DB
:101BA00088626420C8620120C86001211520FFF707
:101BB00045FE1520002809DB00BF00BFC206D20E7B
:101BC00001219140044A116000BF00BF00BF10BD59
:101BD000001002400044014000E100E010B51B206D
:101BE000002815DBC206D20E01219140414A116046
:101BF00000BF00BF00BFBFF34F8F00BF00BF00BFDB
:101C000000BF00BF00BFBFF36F8F00BF00BF00BFAA
:101C100000BF3948406B02210843374948633648C2
:101C2000403000680121890308433349403108608E
:101C30003148006B0121890308432F490863084696
:101C4000006B0121890388432B490863212080010F
:101C50002A490862002008600120C00548600A2067
:101C600048610320C00288602548006A0002000A1B
:101C7000234908620846C06803218903884301217B
:101C8000890340181E49C860084600680F210903EF
:101C90008843012149034018890008431849086016
:101CA0001849194800684A108018FEF7A2FA13492B
:101CB000C8602120800108621B20002805DBC206C5
:101CC000D20E01219140114A116000BF01211B2059
:101CD000FFF7F0FD1B2000280ADB00BF00BFC20693
:101CE000D20E01219140034A803A116000BF00BF2B
:101CF00000BF10BD80E100E000100240003801404C
:101D00000004005060E316000C00002080E200E0B8
:101D1000081C3044580000000000000000000000D3
:101D200000000000000000000000000000000000B3
:101D300000000000000000000100000002000000A0
:101D4000030000000400000006000000070000007F
:101D50000800000009000000000000000000000072
:101D60000000000000000000010000000200000070
:101D7000030000000400000000000000000000005C
:101D80000000004000000000000000000000000013
:101D9000295C8F0215AE47016F128300388941001C
:101DA0009CC420004E6210002731080094180400E3
:101DB0000000000000000000000000000000000023
:101DC00000000000000000200000001067666606AA
:101DD000343333030000000015AE47010BD7A300D6
:101DE000388941009CC420004E6210002731080051
:101DF000000000000000000000254A6F94B1DEFBE7
:101E00000D28476299BCD3F61A3F50758EABC4E1DA
:101E100017325D7883A6C9EC34117E5BA085EACFCA
:101E2000391C7356AD88E7C22E0B6441BA9FF0D5BA
:101E30002306694CB792FDD8684D2207FCD9B693AA
:101E400065402F0AF1D4BB9E7257381DE6C3AC899A
:101E50007F5A3510EBCEA1845C791633C8ED82A78A
:101E600051741B3EC5E08FAA46630C29D2F798BD7A
:101E70004B6E0124DFFA95B0D0F59ABF44610E2B6A
:101E8000DDF897B2496C0326CAEF80A55E7B14315A
:101E9000C7E28DA85376193CE4C1AE8B70553A1F4A
:101EA000E9CCA3867D583712FEDBB4916A4F20053A
:101EB000F3D6B99C67422D08B89DF2D72C0966432A
:101EC000B590FFDA21046B4EA287E8CD36137C591A
:101ED000AF8AE5C03B1E71548CA9C6E3183D52770A
:101EE00081A4CBEE15305F7A96B3DCF90227486DFA
:101EF0009BBED1F40F2A4560181F00080000002087
:101F000054000000040100086C1F00085400002069
:101F10006408000020010008000000000400000028
:101F2000010000000024F400000000000700000091
:101F3000F8100101A2010020C2010020D6010020FA
:101F400000000000000012233445566778899AABE0
:101F5000BCCDDE0112233445566778899AABBCCDDF
:0C1F6000DE000000000000000000000097
:04000005080000C12E
:00000001FF
